{
  "contractName": "Certification",
  "abi": [
    {
      "anonymous": false,
      "inputs": [
        {
          "indexed": false,
          "internalType": "string",
          "name": "certificate_id",
          "type": "string"
        }
      ],
      "name": "certificateGenerated",
      "type": "event"
    },
    {
      "constant": true,
      "inputs": [
        {
          "internalType": "string",
          "name": "",
          "type": "string"
        }
      ],
      "name": "certificates",
      "outputs": [
        {
          "internalType": "string",
          "name": "uid",
          "type": "string"
        },
        {
          "internalType": "string",
          "name": "candidate_name",
          "type": "string"
        },
        {
          "internalType": "string",
          "name": "course_name",
          "type": "string"
        },
        {
          "internalType": "string",
          "name": "org_name",
          "type": "string"
        },
        {
          "internalType": "string",
          "name": "ipfs_hash",
          "type": "string"
        }
      ],
      "payable": false,
      "stateMutability": "view",
      "type": "function"
    },
    {
      "constant": false,
      "inputs": [
        {
          "internalType": "string",
          "name": "_certificate_id",
          "type": "string"
        },
        {
          "internalType": "string",
          "name": "_uid",
          "type": "string"
        },
        {
          "internalType": "string",
          "name": "_candidate_name",
          "type": "string"
        },
        {
          "internalType": "string",
          "name": "_course_name",
          "type": "string"
        },
        {
          "internalType": "string",
          "name": "_org_name",
          "type": "string"
        },
        {
          "internalType": "string",
          "name": "_ipfs_hash",
          "type": "string"
        }
      ],
      "name": "generateCertificate",
      "outputs": [],
      "payable": false,
      "stateMutability": "nonpayable",
      "type": "function"
    },
    {
      "constant": true,
      "inputs": [
        {
          "internalType": "string",
          "name": "_certificate_id",
          "type": "string"
        }
      ],
      "name": "getCertificate",
      "outputs": [
        {
          "internalType": "string",
          "name": "_uid",
          "type": "string"
        },
        {
          "internalType": "string",
          "name": "_candidate_name",
          "type": "string"
        },
        {
          "internalType": "string",
          "name": "_course_name",
          "type": "string"
        },
        {
          "internalType": "string",
          "name": "_org_name",
          "type": "string"
        },
        {
          "internalType": "string",
          "name": "_ipfs_hash",
          "type": "string"
        }
      ],
      "payable": false,
      "stateMutability": "view",
      "type": "function"
    },
    {
      "constant": true,
      "inputs": [
        {
          "internalType": "string",
          "name": "_certificate_id",
          "type": "string"
        }
      ],
      "name": "isVerified",
      "outputs": [
        {
          "internalType": "bool",
          "name": "",
          "type": "bool"
        }
      ],
      "payable": false,
      "stateMutability": "view",
      "type": "function"
    }
  ],
  "bytecode": "0x608060405234801561001057600080fd5b50611733806100206000396000f3fe608060405234801561001057600080fd5b506004361061004c5760003560e01c8063234c76d514610051578063627956ae146101245780638f2b91ea146104d2578063ed0f2e75146107b6575b600080fd5b61010a6004803603602081101561006757600080fd5b810190808035906020019064010000000081111561008457600080fd5b82018360208201111561009657600080fd5b803590602001918460018302840111640100000000831117156100b857600080fd5b91908080601f016020809104026020016040519081016040528093929190818152602001838380828437600081840152601f19601f820116905080830192505050505050509192919290505050610a9a565b604051808215151515815260200191505060405180910390f35b6104d0600480360360c081101561013a57600080fd5b810190808035906020019064010000000081111561015757600080fd5b82018360208201111561016957600080fd5b8035906020019184600183028401116401000000008311171561018b57600080fd5b91908080601f016020809104026020016040519081016040528093929190818152602001838380828437600081840152601f19601f820116905080830192505050505050509192919290803590602001906401000000008111156101ee57600080fd5b82018360208201111561020057600080fd5b8035906020019184600183028401116401000000008311171561022257600080fd5b91908080601f016020809104026020016040519081016040528093929190818152602001838380828437600081840152601f19601f8201169050808301925050505050505091929192908035906020019064010000000081111561028557600080fd5b82018360208201111561029757600080fd5b803590602001918460018302840111640100000000831117156102b957600080fd5b91908080601f016020809104026020016040519081016040528093929190818152602001838380828437600081840152601f19601f8201169050808301925050505050505091929192908035906020019064010000000081111561031c57600080fd5b82018360208201111561032e57600080fd5b8035906020019184600183028401116401000000008311171561035057600080fd5b91908080601f016020809104026020016040519081016040528093929190818152602001838380828437600081840152601f19601f820116905080830192505050505050509192919290803590602001906401000000008111156103b357600080fd5b8201836020820111156103c557600080fd5b803590602001918460018302840111640100000000831117156103e757600080fd5b91908080601f016020809104026020016040519081016040528093929190818152602001838380828437600081840152601f19601f8201169050808301925050505050505091929192908035906020019064010000000081111561044a57600080fd5b82018360208201111561045c57600080fd5b8035906020019184600183028401116401000000008311171561047e57600080fd5b91908080601f016020809104026020016040519081016040528093929190818152602001838380828437600081840152601f19601f820116905080830192505050505050509192919290505050610b27565b005b61058b600480360360208110156104e857600080fd5b810190808035906020019064010000000081111561050557600080fd5b82018360208201111561051757600080fd5b8035906020019184600183028401116401000000008311171561053957600080fd5b91908080601f016020809104026020016040519081016040528093929190818152602001838380828437600081840152601f19601f820116905080830192505050505050509192919290505050610dd3565b60405180806020018060200180602001806020018060200186810386528b818151815260200191508051906020019080838360005b838110156105db5780820151818401526020810190506105c0565b50505050905090810190601f1680156106085780820380516001836020036101000a031916815260200191505b5086810385528a818151815260200191508051906020019080838360005b83811015610641578082015181840152602081019050610626565b50505050905090810190601f16801561066e5780820380516001836020036101000a031916815260200191505b50868103845289818151815260200191508051906020019080838360005b838110156106a757808201518184015260208101905061068c565b50505050905090810190601f1680156106d45780820380516001836020036101000a031916815260200191505b50868103835288818151815260200191508051906020019080838360005b8381101561070d5780820151818401526020810190506106f2565b50505050905090810190601f16801561073a5780820380516001836020036101000a031916815260200191505b50868103825287818151815260200191508051906020019080838360005b83811015610773578082015181840152602081019050610758565b50505050905090810190601f1680156107a05780820380516001836020036101000a031916815260200191505b509a505050505050505050505060405180910390f35b61086f600480360360208110156107cc57600080fd5b81019080803590602001906401000000008111156107e957600080fd5b8201836020820111156107fb57600080fd5b8035906020019184600183028401116401000000008311171561081d57600080fd5b91908080601f016020809104026020016040519081016040528093929190818152602001838380828437600081840152601f19601f820116905080830192505050505050509192919290505050611117565b60405180806020018060200180602001806020018060200186810386528b818151815260200191508051906020019080838360005b838110156108bf5780820151818401526020810190506108a4565b50505050905090810190601f1680156108ec5780820380516001836020036101000a031916815260200191505b5086810385528a818151815260200191508051906020019080838360005b8381101561092557808201518184015260208101905061090a565b50505050905090810190601f1680156109525780820380516001836020036101000a031916815260200191505b50868103845289818151815260200191508051906020019080838360005b8381101561098b578082015181840152602081019050610970565b50505050905090810190601f1680156109b85780820380516001836020036101000a031916815260200191505b50868103835288818151815260200191508051906020019080838360005b838110156109f15780820151818401526020810190506109d6565b50505050905090810190601f168015610a1e5780820380516001836020036101000a031916815260200191505b50868103825287818151815260200191508051906020019080838360005b83811015610a57578082015181840152602081019050610a3c565b50505050905090810190601f168015610a845780820380516001836020036101000a031916815260200191505b509a505050505050505050505060405180910390f35b6000806000836040518082805190602001908083835b60208310610ad35780518252602082019150602081019050602083039250610ab0565b6001836020036101000a038019825116818451168082178552505050505050905001915050908152602001604051809103902060040180546001816001161561010002031660029004905014159050919050565b600080876040518082805190602001908083835b60208310610b5e5780518252602082019150602081019050602083039250610b3b565b6001836020036101000a038019825116818451168082178552505050505050905001915050908152602001604051809103902060040180546001816001161561010002031660029004905014610bff576040517f08c379a00000000000000000000000000000000000000000000000000000000081526004018080602001828103825260278152602001806116b16027913960400191505060405180910390fd5b610c076115dc565b6040518060a00160405280878152602001868152602001858152602001848152602001838152509050806000886040518082805190602001908083835b60208310610c675780518252602082019150602081019050602083039250610c44565b6001836020036101000a03801982511681845116808217855250505050505090500191505090815260200160405180910390206000820151816000019080519060200190610cb692919061160b565b506020820151816001019080519060200190610cd392919061160b565b506040820151816002019080519060200190610cf092919061160b565b506060820151816003019080519060200190610d0d92919061160b565b506080820151816004019080519060200190610d2a92919061160b565b509050507f267fae70dc2912ede5096795f49d41fac472461a02e4f8703eceee0e785bbd1d876040518080602001828103825283818151815260200191508051906020019080838360005b83811015610d90578082015181840152602081019050610d75565b50505050905090810190601f168015610dbd5780820380516001836020036101000a031916815260200191505b509250505060405180910390a150505050505050565b600081805160208101820180518482526020830160208501208183528095505050505050600091509050806000018054600181600116156101000203166002900480601f016020809104026020016040519081016040528092919081815260200182805460018160011615610100020316600290048015610e955780601f10610e6a57610100808354040283529160200191610e95565b820191906000526020600020905b815481529060010190602001808311610e7857829003601f168201915b505050505090806001018054600181600116156101000203166002900480601f016020809104026020016040519081016040528092919081815260200182805460018160011615610100020316600290048015610f335780601f10610f0857610100808354040283529160200191610f33565b820191906000526020600020905b815481529060010190602001808311610f1657829003601f168201915b505050505090806002018054600181600116156101000203166002900480601f016020809104026020016040519081016040528092919081815260200182805460018160011615610100020316600290048015610fd15780601f10610fa657610100808354040283529160200191610fd1565b820191906000526020600020905b815481529060010190602001808311610fb457829003601f168201915b505050505090806003018054600181600116156101000203166002900480601f01602080910402602001604051908101604052809291908181526020018280546001816001161561010002031660029004801561106f5780601f106110445761010080835404028352916020019161106f565b820191906000526020600020905b81548152906001019060200180831161105257829003601f168201915b505050505090806004018054600181600116156101000203166002900480601f01602080910402602001604051908101604052809291908181526020018280546001816001161561010002031660029004801561110d5780601f106110e25761010080835404028352916020019161110d565b820191906000526020600020905b8154815290600101906020018083116110f057829003601f168201915b5050505050905085565b60608060608060606111276115dc565b6000876040518082805190602001908083835b6020831061115d578051825260208201915060208101905060208303925061113a565b6001836020036101000a03801982511681845116808217855250505050505090500191505090815260200160405180910390206040518060a0016040529081600082018054600181600116156101000203166002900480601f0160208091040260200160405190810160405280929190818152602001828054600181600116156101000203166002900480156112345780601f1061120957610100808354040283529160200191611234565b820191906000526020600020905b81548152906001019060200180831161121757829003601f168201915b50505050508152602001600182018054600181600116156101000203166002900480601f0160208091040260200160405190810160405280929190818152602001828054600181600116156101000203166002900480156112d65780601f106112ab576101008083540402835291602001916112d6565b820191906000526020600020905b8154815290600101906020018083116112b957829003601f168201915b50505050508152602001600282018054600181600116156101000203166002900480601f0160208091040260200160405190810160405280929190818152602001828054600181600116156101000203166002900480156113785780601f1061134d57610100808354040283529160200191611378565b820191906000526020600020905b81548152906001019060200180831161135b57829003601f168201915b50505050508152602001600382018054600181600116156101000203166002900480601f01602080910402602001604051908101604052809291908181526020018280546001816001161561010002031660029004801561141a5780601f106113ef5761010080835404028352916020019161141a565b820191906000526020600020905b8154815290600101906020018083116113fd57829003601f168201915b50505050508152602001600482018054600181600116156101000203166002900480601f0160208091040260200160405190810160405280929190818152602001828054600181600116156101000203166002900480156114bc5780601f10611491576101008083540402835291602001916114bc565b820191906000526020600020905b81548152906001019060200180831161149f57829003601f168201915b5050505050815250509050600080886040518082805190602001908083835b602083106114fe57805182526020820191506020810190506020830392506114db565b6001836020036101000a038019825116818451168082178552505050505050905001915050908152602001604051809103902060040180546001816001161561010002031660029004905014156115a0576040517f08c379a00000000000000000000000000000000000000000000000000000000081526004018080602001828103825260278152602001806116d86027913960400191505060405180910390fd5b80600001518160200151826040015183606001518460800151849450839350829250819150809050955095509550955095505091939590929450565b6040518060a0016040528060608152602001606081526020016060815260200160608152602001606081525090565b828054600181600116156101000203166002900490600052602060002090601f016020900481019282601f1061164c57805160ff191683800117855561167a565b8280016001018555821561167a579182015b8281111561167957825182559160200191906001019061165e565b5b509050611687919061168b565b5090565b6116ad91905b808211156116a9576000816000905550600101611691565b5090565b9056fe43657274696669636174652077697468207468697320494420616c72656164792065786973747343657274696669636174652077697468207468697320494420646f6573206e6f74206578697374a265627a7a72315820231802a7ecdd10f917b60792586705f7e64ccdf77cc29dfa2de4d27b6baba83664736f6c63430005100032",
  "source": "// SPDX-License-Identifier: MIT\r\npragma solidity ^0.5.16;\r\n\r\ncontract Certification {\r\n    struct Certificate {\r\n        string uid;\r\n        string candidate_name;\r\n        string course_name;\r\n        string org_name;\r\n        string ipfs_hash;\r\n    }\r\n\r\n    mapping(string => Certificate) public certificates;\r\n    event certificateGenerated(string certificate_id);\r\n\r\n    function generateCertificate(\r\n        string memory _certificate_id,\r\n        string memory _uid,\r\n        string memory _candidate_name,\r\n        string memory _course_name,\r\n        string memory _org_name,\r\n        string memory _ipfs_hash\r\n    ) public {\r\n        // Check if certificate with the given ID already exists\r\n        require(\r\n            bytes(certificates[_certificate_id].ipfs_hash).length == 0,\r\n            \"Certificate with this ID already exists\"\r\n        );\r\n\r\n        // Create the certificate\r\n        Certificate memory cert = Certificate({\r\n            uid: _uid,\r\n            candidate_name: _candidate_name,\r\n            course_name: _course_name,\r\n            org_name: _org_name,\r\n            ipfs_hash: _ipfs_hash\r\n        });\r\n\r\n        // Store the certificate in the mapping\r\n        certificates[_certificate_id] = cert;\r\n\r\n        // Emit an event\r\n        emit certificateGenerated(_certificate_id);\r\n    }\r\n\r\n    function getCertificate(\r\n        string memory _certificate_id\r\n    )\r\n        public\r\n        view\r\n        returns (\r\n            string memory _uid,\r\n            string memory _candidate_name,\r\n            string memory _course_name,\r\n            string memory _org_name,\r\n            string memory _ipfs_hash\r\n        )\r\n    {\r\n        Certificate memory cert = certificates[_certificate_id];\r\n\r\n        // Check if the certificate with the given ID exists\r\n        require(\r\n            bytes(certificates[_certificate_id].ipfs_hash).length != 0,\r\n            \"Certificate with this ID does not exist\"\r\n        );\r\n\r\n        // Return the values from the certificate\r\n        return (\r\n            cert.uid,\r\n            cert.candidate_name,\r\n            cert.course_name,\r\n            cert.org_name,\r\n            cert.ipfs_hash\r\n        );\r\n    }\r\n\r\n    function isVerified(\r\n        string memory _certificate_id\r\n    ) public view returns (bool) {\r\n        return bytes(certificates[_certificate_id].ipfs_hash).length != 0;\r\n    }\r\n}",
  "sourcePath": "C:\\Users\\nirou\\Desktop\\shubatnay\\contracts\\Certification.sol",
  "compiler": {
    "name": "solc",
    "version": "0.5.16+commit.9c3226ce.Emscripten.clang"
  },
  "schemaVersion": "3.4.16",
  "updatedAt": "2025-04-21T09:14:54.860Z",
  "networkType": "ethereum",
  "devdoc": {
    "methods": {}
  },
  "userdoc": {
    "methods": {}
  }
}